{
  "contractName": "MyToken",
  "abi": [
    {
      "inputs": [
        {
          "internalType": "string",
          "name": "name",
          "type": "string"
        },
        {
          "internalType": "string",
          "name": "symbol",
          "type": "string"
        },
        {
          "internalType": "uint8",
          "name": "decimals",
          "type": "uint8"
        }
      ],
      "stateMutability": "nonpayable",
      "type": "constructor"
    },
    {
      "anonymous": false,
      "inputs": [
        {
          "indexed": true,
          "internalType": "address",
          "name": "owner",
          "type": "address"
        },
        {
          "indexed": true,
          "internalType": "address",
          "name": "spender",
          "type": "address"
        },
        {
          "indexed": false,
          "internalType": "uint256",
          "name": "value",
          "type": "uint256"
        }
      ],
      "name": "Approval",
      "type": "event"
    },
    {
      "anonymous": false,
      "inputs": [
        {
          "indexed": true,
          "internalType": "address",
          "name": "from",
          "type": "address"
        },
        {
          "indexed": true,
          "internalType": "address",
          "name": "to",
          "type": "address"
        },
        {
          "indexed": false,
          "internalType": "uint256",
          "name": "value",
          "type": "uint256"
        }
      ],
      "name": "Transfer",
      "type": "event"
    },
    {
      "inputs": [
        {
          "internalType": "address",
          "name": "",
          "type": "address"
        },
        {
          "internalType": "address",
          "name": "",
          "type": "address"
        }
      ],
      "name": "allowance",
      "outputs": [
        {
          "internalType": "uint256",
          "name": "",
          "type": "uint256"
        }
      ],
      "stateMutability": "view",
      "type": "function"
    },
    {
      "inputs": [
        {
          "internalType": "address",
          "name": "spender",
          "type": "address"
        },
        {
          "internalType": "uint256",
          "name": "amount",
          "type": "uint256"
        }
      ],
      "name": "approve",
      "outputs": [
        {
          "internalType": "bool",
          "name": "",
          "type": "bool"
        }
      ],
      "stateMutability": "nonpayable",
      "type": "function"
    },
    {
      "inputs": [
        {
          "internalType": "address",
          "name": "",
          "type": "address"
        }
      ],
      "name": "balanceOf",
      "outputs": [
        {
          "internalType": "uint256",
          "name": "",
          "type": "uint256"
        }
      ],
      "stateMutability": "view",
      "type": "function"
    },
    {
      "inputs": [
        {
          "internalType": "address",
          "name": "from",
          "type": "address"
        },
        {
          "internalType": "uint256",
          "name": "amount",
          "type": "uint256"
        }
      ],
      "name": "burn",
      "outputs": [],
      "stateMutability": "nonpayable",
      "type": "function"
    },
    {
      "inputs": [],
      "name": "decimals",
      "outputs": [
        {
          "internalType": "uint8",
          "name": "",
          "type": "uint8"
        }
      ],
      "stateMutability": "view",
      "type": "function"
    },
    {
      "inputs": [
        {
          "internalType": "address",
          "name": "to",
          "type": "address"
        },
        {
          "internalType": "uint256",
          "name": "amount",
          "type": "uint256"
        }
      ],
      "name": "mint",
      "outputs": [],
      "stateMutability": "nonpayable",
      "type": "function"
    },
    {
      "inputs": [],
      "name": "name",
      "outputs": [
        {
          "internalType": "string",
          "name": "",
          "type": "string"
        }
      ],
      "stateMutability": "view",
      "type": "function"
    },
    {
      "inputs": [],
      "name": "symbol",
      "outputs": [
        {
          "internalType": "string",
          "name": "",
          "type": "string"
        }
      ],
      "stateMutability": "view",
      "type": "function"
    },
    {
      "inputs": [],
      "name": "test",
      "outputs": [
        {
          "internalType": "address",
          "name": "",
          "type": "address"
        }
      ],
      "stateMutability": "view",
      "type": "function"
    },
    {
      "inputs": [],
      "name": "totalSupply",
      "outputs": [
        {
          "internalType": "uint256",
          "name": "",
          "type": "uint256"
        }
      ],
      "stateMutability": "view",
      "type": "function"
    },
    {
      "inputs": [
        {
          "internalType": "address",
          "name": "recipient",
          "type": "address"
        },
        {
          "internalType": "uint256",
          "name": "amount",
          "type": "uint256"
        }
      ],
      "name": "transfer",
      "outputs": [
        {
          "internalType": "bool",
          "name": "",
          "type": "bool"
        }
      ],
      "stateMutability": "nonpayable",
      "type": "function"
    },
    {
      "inputs": [
        {
          "internalType": "address",
          "name": "sender",
          "type": "address"
        },
        {
          "internalType": "address",
          "name": "recipient",
          "type": "address"
        },
        {
          "internalType": "uint256",
          "name": "amount",
          "type": "uint256"
        }
      ],
      "name": "transferFrom",
      "outputs": [
        {
          "internalType": "bool",
          "name": "",
          "type": "bool"
        }
      ],
      "stateMutability": "nonpayable",
      "type": "function"
    }
  ],
  "bytecode": "0x60806040523480156200001157600080fd5b50604051620015e8380380620015e88339818101604052810190620000379190620002e7565b828282826003908051906020019062000052929190620001a2565b5081600490805190602001906200006b929190620001a2565b5080600560006101000a81548160ff021916908360ff160217905550505050620000bb338260ff16600a620000a19190620004c6565b6064620000af919062000603565b620000c460201b60201c565b505050620007f6565b80600160008473ffffffffffffffffffffffffffffffffffffffff1673ffffffffffffffffffffffffffffffffffffffff16815260200190815260200160002060008282546200011591906200040e565b92505081905550806000808282546200012f91906200040e565b925050819055508173ffffffffffffffffffffffffffffffffffffffff16600073ffffffffffffffffffffffffffffffffffffffff167fddf252ad1be2c89b69c2b068fc378daa952ba7f163c4a11628f55a4df523b3ef8360405162000196919062000392565b60405180910390a35050565b828054620001b090620006b1565b90600052602060002090601f016020900481019282620001d4576000855562000220565b82601f10620001ef57805160ff191683800117855562000220565b8280016001018555821562000220579182015b828111156200021f57825182559160200191906001019062000202565b5b5090506200022f919062000233565b5090565b5b808211156200024e57600081600090555060010162000234565b5090565b6000620002696200026384620003d8565b620003af565b905082815260208101848484011115620002885762000287620007af565b5b620002958482856200067b565b509392505050565b600082601f830112620002b557620002b4620007aa565b5b8151620002c784826020860162000252565b91505092915050565b600081519050620002e181620007dc565b92915050565b600080600060608486031215620003035762000302620007b9565b5b600084015167ffffffffffffffff811115620003245762000323620007b4565b5b62000332868287016200029d565b935050602084015167ffffffffffffffff811115620003565762000355620007b4565b5b62000364868287016200029d565b92505060406200037786828701620002d0565b9150509250925092565b6200038c8162000664565b82525050565b6000602082019050620003a9600083018462000381565b92915050565b6000620003bb620003ce565b9050620003c98282620006e7565b919050565b6000604051905090565b600067ffffffffffffffff821115620003f657620003f56200077b565b5b6200040182620007be565b9050602081019050919050565b60006200041b8262000664565b9150620004288362000664565b9250827fffffffffffffffffffffffffffffffffffffffffffffffffffffffffffffffff0382111562000460576200045f6200071d565b5b828201905092915050565b6000808291508390505b6001851115620004bd578086048111156200049557620004946200071d565b5b6001851615620004a55780820291505b8081029050620004b585620007cf565b945062000475565b94509492505050565b6000620004d38262000664565b9150620004e08362000664565b92506200050f7fffffffffffffffffffffffffffffffffffffffffffffffffffffffffffffffff848462000517565b905092915050565b600082620005295760019050620005fc565b81620005395760009050620005fc565b81600181146200055257600281146200055d5762000593565b6001915050620005fc565b60ff8411156200057257620005716200071d565b5b8360020a9150848211156200058c576200058b6200071d565b5b50620005fc565b5060208310610133831016604e8410600b8410161715620005cd5782820a905083811115620005c757620005c66200071d565b5b620005fc565b620005dc84848460016200046b565b92509050818404811115620005f657620005f56200071d565b5b81810290505b9392505050565b6000620006108262000664565b91506200061d8362000664565b9250817fffffffffffffffffffffffffffffffffffffffffffffffffffffffffffffffff04831182151516156200065957620006586200071d565b5b828202905092915050565b6000819050919050565b600060ff82169050919050565b60005b838110156200069b5780820151818401526020810190506200067e565b83811115620006ab576000848401525b50505050565b60006002820490506001821680620006ca57607f821691505b60208210811415620006e157620006e06200074c565b5b50919050565b620006f282620007be565b810181811067ffffffffffffffff821117156200071457620007136200077b565b5b80604052505050565b7f4e487b7100000000000000000000000000000000000000000000000000000000600052601160045260246000fd5b7f4e487b7100000000000000000000000000000000000000000000000000000000600052602260045260246000fd5b7f4e487b7100000000000000000000000000000000000000000000000000000000600052604160045260246000fd5b600080fd5b600080fd5b600080fd5b600080fd5b6000601f19601f8301169050919050565b60008160011c9050919050565b620007e7816200066e565b8114620007f357600080fd5b50565b610de280620008066000396000f3fe608060405234801561001057600080fd5b50600436106100b45760003560e01c806370a082311161007157806370a082311461018f57806395d89b41146101bf5780639dc29fac146101dd578063a9059cbb146101f9578063dd62ed3e14610229578063f8a8fd6d14610259576100b4565b806306fdde03146100b9578063095ea7b3146100d757806318160ddd1461010757806323b872dd14610125578063313ce5671461015557806340c10f1914610173575b600080fd5b6100c1610277565b6040516100ce9190610b52565b60405180910390f35b6100f160048036038101906100ec9190610a67565b610305565b6040516100fe9190610b37565b60405180910390f35b61010f6103f7565b60405161011c9190610b74565b60405180910390f35b61013f600480360381019061013a9190610a14565b6103fd565b60405161014c9190610b37565b60405180910390f35b61015d6105ae565b60405161016a9190610b8f565b60405180910390f35b61018d60048036038101906101889190610a67565b6105c1565b005b6101a960048036038101906101a491906109a7565b6105cf565b6040516101b69190610b74565b60405180910390f35b6101c76105e7565b6040516101d49190610b52565b60405180910390f35b6101f760048036038101906101f29190610a67565b610675565b005b610213600480360381019061020e9190610a67565b610683565b6040516102209190610b37565b60405180910390f35b610243600480360381019061023e91906109d4565b6107a0565b6040516102509190610b74565b60405180910390f35b6102616107c5565b60405161026e9190610b1c565b60405180910390f35b6003805461028490610cd8565b80601f01602080910402602001604051908101604052809291908181526020018280546102b090610cd8565b80156102fd5780601f106102d2576101008083540402835291602001916102fd565b820191906000526020600020905b8154815290600101906020018083116102e057829003601f168201915b505050505081565b600081600260003373ffffffffffffffffffffffffffffffffffffffff1673ffffffffffffffffffffffffffffffffffffffff16815260200190815260200160002060008573ffffffffffffffffffffffffffffffffffffffff1673ffffffffffffffffffffffffffffffffffffffff168152602001908152602001600020819055508273ffffffffffffffffffffffffffffffffffffffff163373ffffffffffffffffffffffffffffffffffffffff167f8c5be1e5ebec7d5bd14f71427d1e84f3dd0314c0f7b2291e5b200ac8c7c3b925846040516103e59190610b74565b60405180910390a36001905092915050565b60005481565b600081600260008673ffffffffffffffffffffffffffffffffffffffff1673ffffffffffffffffffffffffffffffffffffffff16815260200190815260200160002060003373ffffffffffffffffffffffffffffffffffffffff1673ffffffffffffffffffffffffffffffffffffffff168152602001908152602001600020600082825461048b9190610c1c565b9250508190555081600160008673ffffffffffffffffffffffffffffffffffffffff1673ffffffffffffffffffffffffffffffffffffffff16815260200190815260200160002060008282546104e19190610c1c565b9250508190555081600160008573ffffffffffffffffffffffffffffffffffffffff1673ffffffffffffffffffffffffffffffffffffffff16815260200190815260200160002060008282546105379190610bc6565b925050819055508273ffffffffffffffffffffffffffffffffffffffff168473ffffffffffffffffffffffffffffffffffffffff167fddf252ad1be2c89b69c2b068fc378daa952ba7f163c4a11628f55a4df523b3ef8460405161059b9190610b74565b60405180910390a3600190509392505050565b600560009054906101000a900460ff1681565b6105cb82826107cd565b5050565b60016020528060005260406000206000915090505481565b600480546105f490610cd8565b80601f016020809104026020016040519081016040528092919081815260200182805461062090610cd8565b801561066d5780601f106106425761010080835404028352916020019161066d565b820191906000526020600020905b81548152906001019060200180831161065057829003601f168201915b505050505081565b61067f82826108a5565b5050565b600081600160003373ffffffffffffffffffffffffffffffffffffffff1673ffffffffffffffffffffffffffffffffffffffff16815260200190815260200160002060008282546106d49190610c1c565b9250508190555081600160008573ffffffffffffffffffffffffffffffffffffffff1673ffffffffffffffffffffffffffffffffffffffff168152602001908152602001600020600082825461072a9190610bc6565b925050819055508273ffffffffffffffffffffffffffffffffffffffff163373ffffffffffffffffffffffffffffffffffffffff167fddf252ad1be2c89b69c2b068fc378daa952ba7f163c4a11628f55a4df523b3ef8460405161078e9190610b74565b60405180910390a36001905092915050565b6002602052816000526040600020602052806000526040600020600091509150505481565b600033905090565b80600160008473ffffffffffffffffffffffffffffffffffffffff1673ffffffffffffffffffffffffffffffffffffffff168152602001908152602001600020600082825461081c9190610bc6565b92505081905550806000808282546108349190610bc6565b925050819055508173ffffffffffffffffffffffffffffffffffffffff16600073ffffffffffffffffffffffffffffffffffffffff167fddf252ad1be2c89b69c2b068fc378daa952ba7f163c4a11628f55a4df523b3ef836040516108999190610b74565b60405180910390a35050565b80600160008473ffffffffffffffffffffffffffffffffffffffff1673ffffffffffffffffffffffffffffffffffffffff16815260200190815260200160002060008282546108f49190610c1c565b925050819055508060008082825461090c9190610c1c565b92505081905550600073ffffffffffffffffffffffffffffffffffffffff168273ffffffffffffffffffffffffffffffffffffffff167fddf252ad1be2c89b69c2b068fc378daa952ba7f163c4a11628f55a4df523b3ef836040516109719190610b74565b60405180910390a35050565b60008135905061098c81610d7e565b92915050565b6000813590506109a181610d95565b92915050565b6000602082840312156109bd576109bc610d68565b5b60006109cb8482850161097d565b91505092915050565b600080604083850312156109eb576109ea610d68565b5b60006109f98582860161097d565b9250506020610a0a8582860161097d565b9150509250929050565b600080600060608486031215610a2d57610a2c610d68565b5b6000610a3b8682870161097d565b9350506020610a4c8682870161097d565b9250506040610a5d86828701610992565b9150509250925092565b60008060408385031215610a7e57610a7d610d68565b5b6000610a8c8582860161097d565b9250506020610a9d85828601610992565b9150509250929050565b610ab081610c50565b82525050565b610abf81610c62565b82525050565b6000610ad082610baa565b610ada8185610bb5565b9350610aea818560208601610ca5565b610af381610d6d565b840191505092915050565b610b0781610c8e565b82525050565b610b1681610c98565b82525050565b6000602082019050610b316000830184610aa7565b92915050565b6000602082019050610b4c6000830184610ab6565b92915050565b60006020820190508181036000830152610b6c8184610ac5565b905092915050565b6000602082019050610b896000830184610afe565b92915050565b6000602082019050610ba46000830184610b0d565b92915050565b600081519050919050565b600082825260208201905092915050565b6000610bd182610c8e565b9150610bdc83610c8e565b9250827fffffffffffffffffffffffffffffffffffffffffffffffffffffffffffffffff03821115610c1157610c10610d0a565b5b828201905092915050565b6000610c2782610c8e565b9150610c3283610c8e565b925082821015610c4557610c44610d0a565b5b828203905092915050565b6000610c5b82610c6e565b9050919050565b60008115159050919050565b600073ffffffffffffffffffffffffffffffffffffffff82169050919050565b6000819050919050565b600060ff82169050919050565b60005b83811015610cc3578082015181840152602081019050610ca8565b83811115610cd2576000848401525b50505050565b60006002820490506001821680610cf057607f821691505b60208210811415610d0457610d03610d39565b5b50919050565b7f4e487b7100000000000000000000000000000000000000000000000000000000600052601160045260246000fd5b7f4e487b7100000000000000000000000000000000000000000000000000000000600052602260045260246000fd5b600080fd5b6000601f19601f8301169050919050565b610d8781610c50565b8114610d9257600080fd5b50565b610d9e81610c8e565b8114610da957600080fd5b5056fea264697066735822122002676ffd281ad90d1b3d4f7fc349505a036e1bfd0cddba9af5ae97344f761c4564736f6c63430008060033",
  "source": "// SPDX-License-Identifier: MIT\r\npragma solidity ^0.8;\r\n\r\nimport \"./ERC20.sol\";\r\n\r\ncontract MyToken is ERC20 {\r\n    constructor(string memory name, string memory symbol, uint8 decimals) ERC20(name, symbol, decimals) {\r\n        _mint(msg.sender, 100 * 10 ** uint256(decimals));\r\n    }\r\n}\r\n",
  "sourcePath": "F:/BlockChain/ERC20Token/contracts/MyToken.sol",
  "compiler": {
    "name": "solc",
    "version": "0.8.6+commit.11564f7e.Emscripten.clang"
  },
  "schemaVersion": "2.0.1",
  "updatedAt": "2025-08-18T11:21:46.841Z"
}